:1008D2004E6869657420646F3A2000274300446FB4
:1008E200206E6869657420646F2E2E2E0053616E2F
:0D08F2006754616F436C75622E4E65740093
:10092200EF1392A0EFA2E192A1A2E292A2D2A3D2ED
:10093200A4C2A3C2A420A5FD30A5FDD2A6AFB0C219
:01094200A60E
:010943002291
:1009CC00E4FDFCC3ED9FEC9E50070DBD00010C80B7
:0109DC00F228
:0109DD0022F7
:10094400E4FDFCC3ED9FEC9E5015E4FBFA0BBB00E9
:0F095400010AEB647D4A70F50DBD00010C80E4D3
:010963002271
:0309B9001209849C
:1009BC00D2827F037E001209CCC2827F320209CC24
:10098400EF139284EFC313139285EF1313543F13A1
:0C0994009286EF131313541F1392872256
:1009DE00AB07EBC4540FFF1209B9AF03120984021F
:0209EE0009BC42
:0C09F0007F011209DE7F0A7E000209CCA4
:10085500E4FF1209847F147E00120944C280C2811C
:100865007F031209B97F057E001209441209BC7F76
:10087500647E001209CC1209BC7F02120984120998
:10088500BC7F281209DE7F0C1209DE7F061209DE05
:050895007F010209DEF5
:10096400ED7006EF2480FA8004EF24C0FA7FE87E5D
:10097400031209CCAF021209DE7F327E000209CCD9
:0409FC00842430FF20
:080A0000D2801209DEC280223F
:1008FF008B098A0A890BAB09AA0AA90B1209A0FF57
:10090F006010120A007401250BF50BE4350AF50A85
:03091F0080E4224F
:10089A008F087BFF7A0879D21208FFE50875F064A1
:1008AA001209FCE50875F06484E5F075F00A12098E
:1008BA00FCE50875F00A84E5F02430FF120A007B93
:0808CA00FF7A0879DD0208FF46
:03000B00020A14D2
:030A1400B2A73254
:10080000758902758AEC758CECD28CD2A9D2AF12A4
:1008100008557FC87E001209447BFF7A0879E012F0
:1008200008FF7FF47E011209441209F07D01E4FF04
:100830001209647BFF7A0879EF1208FFE4FDFF12CA
:100840000964E4FF1209228F0C12089A7FF47E01DA
:0508500012094480E7DD
:03000000020A08E9
:0C0A0800787FE4F6D8FD75810C02080030
:1009A000BB010689828A83E0225002E722BBFE0255
:0909B000E32289828A83E4932288
:00000001FF
